:100000000C94BF000C942B0E0C94520E0C94E70031
:100010000C94E7000C94E7000C94E7000C94E700C4
:100020000C94E7000C94E7000C94E7000C94E700B4
:100030000C94E7000C94E7000C94E7000C94E700A4
:100040000C94790E0C94E7000C946D110C949F1194
:100050000C94E7000C94E7000C94E7000C94E70084
:100060000C94E7000C94E7002E005245424F4F5489
:10007000494E4700464C583F4F4B00494D47203EA4
:100080002033316B2C20746F6F2062696700464CFF
:10009000583F4F4B20726573656E64005D203E20B3
:1000A00000726164696F205B00554E536869667425
:1000B000696E67206368616E6E656C20746F2000E6
:1000C0005368696674696E67206368616E6E656CFB
:1000D00020746F2000464C583F4F4B202841434B23
:1000E0002073656E7429004641494C3A4E4F2046B4
:1000F0004C415348204D454D00444F4E4500464C21
:1001000041534820494D47205452414E534D495385
:1001100053494F4E2053554343455353210A000042
:1001200000000800020100000304070000000000B6
:1001300000000001020408102040800102040810A1
:10014000200102040810200404040404040404022E
:100150000202020202030303030303000000002360
:10016000002600290000000000250028002B0000C8
:10017000000000240027002A00000602CF111124ED
:100180001FBECFEFD8E0DEBFCDBF12E0A0E0B1E0F0
:10019000E8E2F0E302C005900D92A432B107D9F76E
:1001A00023E0A4E2B2E001C01D92AC36B207E1F751
:1001B00011E0CEE7D1E004C02297FE010E94351580
:1001C000CA37D107C9F70E947C130C9412180C94FB
:1001D000000061E089E00E94900F60E089E00E94E9
:1001E000C90F26E040E052EC61E070E08FEC92E055
:1001F0000E940B1180E090E00E942D17282F30E024
:10020000309363022093620224E6482F6BE58EE66A
:1002100092E00E945F056AE071E08EE692E00E9443
:100220001A0540E05DE069E976E38EE692E00E941F
:100230008F0361E08EE692E00E942B086BE171E093
:100240008FEC92E00E94731269E271E08FEC92E011
:100250000E94731260916202709163024AE050E062
:100260008FEC92E00E943D1387E692E00E94A30D7E
:10027000882319F064E371E002C067E471E08FEC59
:1002800092E00E949212109266021092650281E042
:100290008093640208951F93CF93DF93182FEB018F
:1002A00061E00E94900F61E0812F0E94C90FBE01A2
:1002B000882777FD8095982F0E94F20E60E0812FAD
:1002C000DF91CF911F910C94C90FCF92EF920F93B2
:1002D0001F93CF93DF93CDB7DEB72C970FB6F8946B
:1002E000DEBF0FBECDBF8EE692E00E944D02882396
:1002F00009F479C082E791E09A8389838091700242
:100300008B83809171028C83809172028D838091A6
:1003100073028E83809174028F8380917502888727
:10032000809176028987809177028A87809178020E
:100330008B8789E0C82EE12C00916702109168023A
:100340002091690230916A0240916B0250916C02D7
:1003500060916D02CE0101960E94B70B8EE692E08D
:100360000E94FC02882369F040E067E172E08EE6BB
:1003700092E00E94CB076CE571E08FEC92E00E9466
:1003800073126AE070E080E090E00E94F20E20912B
:100390008302422F50E0E4E2F2E080E090E0841734
:1003A00095073CF4DC01AB57BD4F3C91319301966E
:1003B000F6CF68E671E08FEC92E02C870E949212F3
:1003C0006091820201E02C8544E252E08EE692E0E8
:1003D0000E947E0763E070E089E00E944B018FEC91
:1003E00092E00E947C126AE070E080E090E00E945F
:1003F000F20E2C960FB6F894DEBF0FBECDBFDF9184
:10040000CF911F910F91EF90CF90089582E791E0E7
:1004100090936F0280936E028AE08093700282E074
:10042000809371021092720281E080938402109294
:1004300074028FE1809375021092760240E35FEEC2
:1004400068E087E692E00C94430C089581E0809385
:100450007B028091790290917A02DC01ED91FC910E
:100460000484F585E02D099510927B020895FC0126
:10047000F8948CB581878DB582878CB5837F8CBDD0
:100480008CB58F7D8CBD8CB58C7F8CBD8DB58E7FF2
:100490008DBD60E082810C94C90FF8942091840294
:1004A000233021F42091800221110FC02091840279
:1004B000233011F4789407C0DC01ED91FC9102889F
:1004C000F389E02D099580E00895DC01ED91FC9120
:1004D0000488F589E02D61E0099581E00895CF93C6
:1004E000DF93EC0161E08A810E94C90F89858CBD90
:1004F0008A858DBD80917B02811101C07894DF9146
:10050000CF9108958EBD00000DB407FEFDCF8EB5CE
:100510000895CF93DF931F92CDB7DEB7DC01ED9145
:10052000FC910480F581E02D698309956981882318
:1005300059F080918202861711F06F3F29F4909153
:100540007E0281E0911101C080E00F90DF91CF9198
:1005500008952F923F924F925F927F928F929F9237
:10056000AF92BF92CF92DF92EF92FF920F931F93C1
:10057000CF93DF93EC01962E5A01722E802E10E05D
:10058000CE2CD12CE12CF12CE881F9810190F08165
:10059000E02D01E0272DA501692DCE0109950E94CE
:1005A000C30E1B012C010E94C30E6219730984093A
:1005B00095096C157D058E059F0540F4692DCE01CA
:1005C0000E948902882379F381E004C01F5F8116AD
:1005D000D8F680E0DF91CF911F910F91FF90EF90BF
:1005E000DF90CF90BF90AF909F908F907F905F9063
:1005F0004F903F902F90089580917F02882329F09B
:100600009091810281E09F3F09F480E00895EF928C
:10061000FF921F93CF93DF931F92CDB7DEB77C017C
:10062000DC01ED91FC91008CF18DE02D6983099541
:100630006981862F8F770E94820280E00E94820269
:10064000182FD701ED91FC91028CF38DE02DC7019D
:100650000995812F0F90DF91CF911F91FF90EF901F
:1006600008950F931F93CF93DF93EC0167E00E94EF
:100670000703082F68E0CE010E940703182F69E0E6
:10068000CE010E940703402F50E060E070E0BA0105
:1006900055274427480F511D611D711D812F90E082
:1006A000982F8827480F591F611D711DCB01BA0172
:1006B0000E94201420E034E244E752E40E94AE1489
:1006C0000E94F413DF91CF911F910F9108950F9322
:1006D0001F93CF93DF9300D0CDB7DEB78C01DC0141
:1006E000ED91FC91008CF18DE02D4A836983099591
:1006F0006981862F80680E9482024A81842F0E942D
:100700008202D801ED91FC91028CF38DE02DC8019D
:100710000F900F90DF91CF911F910F910994CF927D
:10072000DF92EF92FF921F93CF93DF93EC016A0168
:100730007B0110918402143039F4E881F981048836
:10074000F589E02D63E00995C701B6010E942014E8
:1007500020E034E244E752E40E948C130E94F41338
:100760006B017C01AC016627772767E0CE010E9410
:10077000670377276F2D5E2D4D2D68E0CE010E9417
:1007800067034C2D69E0CE010E946703133041F4EA
:10079000E881F9810488F589E02D62E0CE010995B0
:1007A000E881F9810488F589E02D612FCE01DF9180
:1007B000CF911F91FF90EF90DF90CF9009941F93FE
:1007C000CF93DF93EC01162F80918402681709F410
:1007D00061C0623009F440C070F4662309F444C07B
:1007E000613009F057C061E0CE010E940703482F35
:1007F000437E44603FC06330C1F0643009F04AC0BA
:1008000061E0CE010E940703482F437E4C6061E007
:10081000CE010E9467038885882381F1E881F981F0
:100820000688F789E02D61E014C061E0CE010E94E6
:100830000703482F437E406161E0CE010E946703B9
:1008400088858823D9F0E881F9810688F789E02D29
:1008500060E0CE01099512C061E0CE010E9407035D
:10086000482F437E486006C061E0CE010E94070326
:10087000482F437E61E0CE010E946703809184028D
:10088000811106C067E2CE010E94070387FFF6CF01
:1008900010938402DF91CF911F910895CF93DF933E
:1008A000EC01603208F06FE16F838885882311F0D6
:1008B00066956F8361E1CE010E940703482F407E59
:1008C0008F81482B61E1CE01DF91CF910C946703BA
:1008D000CF92DF92EF92FF920F931F93CF93DF930C
:1008E000EC01F62ED42EC52E122FE881F981048852
:1008F000F589E02D61E0099567E2CE010E940703CA
:1009000087FFFACF40E065E2CE010E9467031E3305
:1009100008F01DE3E11004C0002319F000E401C059
:1009200000E8E881F981008CF18DE02DCE01099578
:1009300080E80E94820283E0810F0E9482028F2D54
:100940000E9482028D810E948202802F0E94820278
:100950000D2DED2CFC2C8E2D801B811730F4F70112
:1009600081917F010E948202F6CFE881F981028C99
:10097000F38DE02DCE010995E881F9810488F58990
:10098000E02D64E0CE0109950E94C30E6B017C014D
:100990008B810E94FF0F892B81F0E881F981048807
:1009A000F589E02D61E0CE01DF91CF911F910F918C
:1009B000FF90EF90DF90CF9009940E94C30E6C19C6
:1009C0007D098E099F09683E73408105910528F7CE
:1009D000DFCFCF93DF93EC0110928302109282025B
:1009E000109281021092800210927F0210927E0279
:1009F00010927D0210927C0268E20E94070382FF3F
:100A00000AC06DE3CE010E940703482F44606DE3E6
:100A1000CE010E94670340E465E2CE010E946703B5
:100A2000E881F9810488F589E02D63E0CE01DF914A
:100A3000CF910994DF92EF92FF920F931F93CF9380
:100A4000DF93EC018B01E881F9810488F589E02DC1
:100A500061E0099501151105E1F0E881F981008C4B
:100A6000F18DE02DCE0109958EEB0E948202780176
:100A7000D12CF70181917F010E948202D394F0E191
:100A8000DF12F7CFE881F981028CF38DE02DCE01E2
:100A900009956DE3CE010E9407038E7F91E0012B43
:100AA00009F490E0482F492B6DE3CE01DF91CF91FF
:100AB0001F910F91FF90EF90DF900C9467038F923E
:100AC0009F92AF92BF92DF92EF92FF920F931F938C
:100AD000CF93DF93CDB7DEB7AE970FB6F894DEBFF6
:100AE0000FBECDBF7C01D42E8EE28E010F5F1F4F53
:100AF000D801E82F1D92EA95E9F791E0998334E057
:100B00003A8342E04B8393E09D834E833F8340E4EE
:100B1000488735E039879A8796E09B8793E39C87DF
:100B200037E03D8798E09F8799E0998B99E19B8B0F
:100B300092E49C8B55E25D8B4E8B46E24F8B388F57
:100B400038E2398F30E13A8F39E23B8F3CED3C8F10
:100B50008D8F88E88E8F8FE28F8F8DE288A380E360
:100B600089A337E33BA330E93CA338E33DA39EA32D
:100B70009CE39FA39FE898A79DE399A792E19AA77A
:100B80009FE69BA78CA78FEF8DA76F3131F06B325B
:100B900031F0663531F489ED05C08EE403C08CE692
:100BA00001C084EE8E876F3141F06B3221F06635E3
:100BB00021F480E003C080E401C080EC888B2AA38C
:100BC00061E0D70112968C910E94C90F61E0F70194
:100BD00082810E94900F0E94D40D0E94C30E4B018F
:100BE0005C014AEA6FE2C7010E9467036FE2C70136
:100BF0000E9407038A3A59F00E94C30E68197909C6
:100C00008A099B09623371058105910550F30E94A1
:100C1000C30E4B015C0145E56FE2C7010E9467030B
:100C20006FE2C7010E940703853559F00E94C30E89
:100C3000681979098A099B09623371058105910553
:100C400050F3B12CF801EB0DF11DEB0DF11D60819E
:100C50006F3F31F04181C7010E946703B394F2CF27
:100C600060E070E0C7010E941A05D701ED91FC9188
:100C700011970084F185E02D18966C91C7010995B4
:100C8000D701ED91FC910488F589E02D61E0C70161
:100C900009950E94C30E4B015C0167E2C7010E94E7
:100CA000070387FD0BC00E94C30E681979098A09E2
:100CB0009B09623371058105910578F30E94C30E8B
:100CC000681979098A099B096233710581059105C3
:100CD00098F410927B0243E050E066E272E0F70184
:100CE00084810E940B0EF0927A02E0927902D70181
:100CF0001596DC9281E001C080E0AE960FB6F894C4
:100D0000DEBF0FBECDBFDF91CF911F910F91FF903E
:100D1000EF90DF90BF90AF909F908F900895CF930A
:100D2000DF93EC0161110DC064E2CE010E94070364
:100D300090E091958195910995958795DF91CF9157
:100D4000089541E063E20E94670363E2CE010E94DE
:100D5000070381FFFACFE8CFCF93DF93EC018091B7
:100D600084028330A9F480918002811111C060E077
:100D7000CE010E948F06863A9F4F54F4E881F98194
:100D80000488F589E02D61E0CE01099581E001C07C
:100D900080E0DF91CF910895FF920F931F93CF933F
:100DA000DF93EC0180918402833001F568E2CE018B
:100DB0000E94070382FD28C019C0809183028D33F1
:100DC00030F4E0918302F0E0EB57FD4F1082E881B0
:100DD000F981028CF38DE02DCE010995E881F9812E
:100DE0000488F589E02D63E0CE01099560E0CE012D
:100DF0000E948F0690937D0280937C02DF91CF91B9
:100E00001F910F91FF900895E881F9810488F58979
:100E1000E02D61E0CE010995E881F981008CF18D2A
:100E2000E02DCE01099580E00E94820280E00E94C0
:100E3000820280938002809180028334D0F480917A
:100E400080028093800280E00E948202809381026F
:100E50008E81811109C0909181028D81981721F0B6
:100E6000809181028F3F39F480918002833018F0A5
:100E700017C082E4E6CF10928002E881F981028CEB
:100E8000F38DE02DCE010995E881F9810288F3897F
:100E9000E02DCE01DF91CF911F910F91FF9009942A
:100EA0008091800283508093830280E00E948202BE
:100EB0008093820280E00E948202982F9078909323
:100EC0007E02982F907490937F02E881F9810684C6
:100ED000F785E02D682FCE010995F12C80918302D2
:100EE000F81608F06ACF0F2D10E080E00E94820211
:100EF000F801EB57FD4F8083F394F0CF4F925F9250
:100F00006F927F929F92AF92BF92EF920F931F9337
:100F1000CF93DF93EC01162F5A01922E6DE30E94BE
:100F20000703482F44606DE3CE010E9467030E94CF
:100F3000C30E2B013C01CE010E94AC068823C1F0F8
:100F4000E881F9810088F189E02DE12C292DA501A6
:100F5000612FCE010995DF91CF911F910F91EF90F5
:100F6000BF90AF909F907F906F905F904F9008954B
:100F70000E94C30E6419750986099709683E73407B
:100F800081059105E8F6E881F9810480F581E02D7D
:100F9000CE010995D0CF4F925F926F927F929F9230
:100FA000AF92BF92CF92DF92EF92FF920F93CF93C7
:100FB000DF93EC015B01942E10927F02F09082028D
:100FC000C0907C02D0907D026DE30E940703482F01
:100FD00044606DE3CE010E9467030E94C30E2B01A3
:100FE0003C01CE010E94AC06882311F1F0928202EE
:100FF000E881F9810088F189E02DEE24E39400E096
:10100000292DA5016F2DCE010995D0927D02C092A8
:101010007C02DF91CF910F91FF90EF90DF90CF9006
:10102000BF90AF909F907F906F905F904F9008958A
:101030000E94C30E6419750986099709683E7340BA
:101040008105910598F6E881F9810480F581E02D0C
:10105000CE010995C6CFCF93DF93EC016887662355
:1010600011F04FE001C04AE163E1CE010E94670345
:101070008885882341F061E1CE010E940703482F53
:101080004F71406602C04F81406861E1CE01DF913F
:10109000CF910C9467031F93CF93DF93EC01162F2E
:1010A000662311F04DE501C045E56AE5CE010E94D9
:1010B0006703112311F04CE701C040E76CE5CE0156
:1010C000DF91CF911F910C946703FC01DB0182E754
:1010D00091E09183808312968C911297828313966C
:1010E0008C911397838314968C911497848315960F
:1010F0008C911597858316968C91169786831796F3
:101100008C911797878318968C91189780871996DA
:101110008C91199781871A968C9182870895CF9226
:10112000DF92EF920F931F93CF93DF93CDB7DEB78C
:1011300027970FB6F894DEBF0FBECDBF6C010983B1
:101140001A832B833C834D835E836F83EE2099F05B
:10115000CE0101960E94A30D81110DC04FE06EE8F3
:1011600071E0C6010E94CB0767EE70E08FEC92E061
:101170000E94801206C046E06EE971E0C6010E943E
:10118000CB0727960FB6F894DEBF0FBECDBFDF9119
:10119000CF911F910F91EF90DF90CF900895CF9254
:1011A000DF92FF920F931F93CF93DF93CDB7DEB7FC
:1011B0000DB71EB7262F30E0220F331FA9014F5F56
:1011C0005F4FEDB7FEB7E41BF50B0FB6F894FEBF0B
:1011D0000FBEEDBF4DB75EB74F5F5F4FDA01F82E20
:1011E0006C018C2D8F198617C8F4C601F601708129
:1011F00072957F7070637A3308F0795D7C93FFEFAE
:10120000CF1ADF0AFC0180818F7080638A3308F077
:10121000895D11968C9311971296E3CFFA01E20F34
:10122000F31F1082BA018FEC92E00E9492120FB667
:10123000F8941EBF0FBE0DBFDF91CF911F910F918C
:10124000FF90DF90CF9008952F923F924F925F9240
:101250006F927F928F929F92AF92BF92CF92DF92C6
:10126000EF92FF920F931F93CF93DF93CDB7DEB72B
:10127000A7970FB6F894DEBF0FBECDBF4C016EA38B
:10128000EC8EFD8E0E8F1F8F28A339A34AA33C2C12
:10129000ADA240E050E0BA01CE014C960E94710D23
:1012A00007E010E02AEB31E040E050E0BA01CE0167
:1012B0004C960E940E0D2AE349E050E060E070E099
:1012C000CE014C960E94E30C0E94C30E2B013C0100
:1012D0005AE0C52ED12CA12CB12CAE014F5F5F4F2F
:1012E0005CA34BA3C4010E944D02882301F18091AD
:1012F00082025EA185131BC020908302B3E0B21569
:1013000020F4809185028634F9F061E08DA10E947D
:10131000900F61E08DA10E94C90F61E070E080E054
:1013200090E00E94F20E60E08DA10E94C90F0E9421
:10133000C30E6419750986099709693B7B408105CD
:10134000910580F280E039C1809186028C34E9F603
:10135000809187028835C9F6809188028A3309F026
:10136000A6C066E0621508F0A2C084E090E000E04C
:1013700010E0282FFF24FA94F80EFC01EB57FD4FE4
:101380003081303308F4CAC030813A3308F0C6C027
:1013900030816AE0A801649F8001659F100D1124CF
:1013A00000531109030F111D01968830910509F7AB
:1013B000F22E3320C1F061EA70E08FEC92E00E94DF
:1013C00050124AE050E0622D8FEC92E00E946213CE
:1013D0006CE970E08FEC92E00E945012622D85E87B
:1013E00092E00E94CF08E1E0EF0DF0E0EB57FD4FF7
:1013F00080818A3309F0A6CF0E94C30E2B013C01E5
:101400000A151B0539F0C50101970817190709F0DE
:101410004EC029C032E03F0D58018FEFA81AB80A1C
:10142000321508F5E32FF0E0EB57FD4F20817601F0
:101430009FEFE91AF90AA60160E070E0CE014C9630
:101440003FA30E94E30CC7019F773FA1892B41F482
:10145000A70160E070E0CE014C960E94710D3FA1A3
:101460003F5F6701DDCF1F930F93A2ECB1E0BF9305
:10147000AF934CA14F935BA15F930E943915482F06
:101480000F900F900F900F900F900F90332049F016
:10149000BE016F5F7F4F8FEC92E04FA30E949212CC
:1014A0004FA1BE016F5F7F4FC4010E94CB078091A7
:1014B00088028F3309F029CF64E026121CC0B401E2
:1014C000CE0141960E946508EE24E3940C8D1D8D9B
:1014D0002E8D3F8D48A159A16AA1CE0141960E944F
:1014E0008F08332009F411CF6EE870E08FEC92E0A2
:1014F0000E9480120ACF87E0281207CF80918902CC
:10150000853409F002CF80918A028F3409F0FDCE34
:1015100080918B02863409F0F8CE08C030813A33CE
:1015200009F042CF243009F044CF0CCF86010A5095
:10153000110901308CE7180778F0332031F06BE7A0
:1015400070E08FEC92E00E9480124FE06CEC71E052
:10155000C4010E94CB07F6CEB401CE0141960E9491
:10156000650846E06EE971E0CE0141960E94CB0726
:10157000332031F064E770E08FEC92E00E9480123B
:10158000212F47E050E060E070E0CE014C960E94D1
:10159000E30C26EF2C0D48E050E060E070E0CE0157
:1015A0004C960E94E30C2AE349E050E060E070E0D2
:1015B000CE014C960E94E30C81E0A7960FB6F894FA
:1015C000DEBF0FBECDBFDF91CF911F910F91FF9076
:1015D000EF90DF90CF90BF90AF909F908F907F90D3
:1015E0006F905F904F903F902F9008958F929F92B1
:1015F000AF92BF92CF92DF92EF92FF920F931F9321
:10160000CF93DF93CDB7DEB762970FB6F894DEBF06
:101610000FBECDBF4C01B62EEC86FD860E871F8710
:10162000288B398B4A8BDC2CBC01CE0101960E94A1
:101630006508EE24E3940C851D852E853F85488939
:1016400059896A89CE0101960E948F08CC20D9F071
:1016500065ED70E08FEC92E00E94801260EC70E02B
:101660008FEC92E00E945012C4010E943103AB0142
:10167000BC01405C5D4B604F7F4F2AE030E08FEC57
:1016800092E00E946913C4010E943103AB01BC01C6
:10169000405C5D4B604F7F4FC4010E948F03B401DB
:1016A000CE0101960E946508CD2CEC84FD840E8548
:1016B0001F85288939894A896B2DCE0101960E94A0
:1016C0002409B82EDD20A9F069EA70E08FEC92E0E1
:1016D0000E945012C4010E943103AB01BC0140546E
:1016E00052446F4071092AE030E08FEC92E00E9492
:1016F0006913C4010E943103AB01BC014054524440
:101700006F407109C4010E948F038B2D62960FB642
:10171000F894DEBF0FBECDBFDF91CF911F910F9127
:10172000FF90EF90DF90CF90BF90AF909F908F9001
:101730000895C82F882331F06AE670E08FEC92E0BC
:101740000E94501288E028E130E00FB6F894A89586
:10175000209360000FBE80936000CC2339F068E6D0
:1017600070E08FEC92E00E945012F9CFFFCFAF9261
:10177000BF92CF92DF92EF92FF920F931F93CF937E
:10178000DF93CDB7DEB762970FB6F894DEBF0FBE1A
:10179000CDBF0C871D872E873F87488B598B6A8B5F
:1017A000DE2C20918302243008F45CC02091850255
:1017B000263409F057C0209186022C3409F052C01B
:1017C00020918702283509F04DC0209188022F33DF
:1017D00009F048C0B0908202209183022730A1F422
:1017E00020918902253481F420918A022F3461F4FA
:1017F00020918B02263441F400E026E04EE951E0CE
:101800006B2D0E947E072EC0BC01CE0101960E9466
:101810006508AC2CCD2CEC84FD840E851F852889B1
:1018200039894A896B2DCE0101960E94F60A8823D8
:1018300059F0DD2031F06EEF70E08FEC92E00E9405
:1018400050128D2D0E94990BDD2061F06CED71E03E
:101850008FEC92E00E94731269EF70E08FEC92E0DF
:101860000E94801262960FB6F894DEBF0FBECDBF05
:10187000DF91CF911F910F91FF90EF90DF90CF906C
:10188000BF90AF900895FC0180E585831682608348
:10189000528341830895FC018CB583838DB5848385
:1018A000358126818091C402882399F09FB7F894EE
:1018B0008091C402813059F48DB38093C2024DB33C
:1018C0008091C302809584238DBB9FBF02C09093FB
:1018D000C2023CBD2DBD60E080810C94C90FCF9346
:1018E000DF93EC0161E088810E94C90F8091C402FE
:1018F000882361F09FB7F8942091C4028091C202BE
:10190000213019F48DBB9FBF01C08FBF8B818CBD6F
:101910008C818DBDDF91CF9108950F931F93CF934D
:10192000DF938C010E944B0C8FE90E94820280E0C1
:101930000E948202C82FD0E0DC2FCC2780E00E94DA
:101940008202C82BC8010E946F0CCE01DF91CF919B
:101950001F910F9108951F93CF93DF93EC010E9485
:101960004B0C85E00E94820280E00E948202182FC8
:10197000CE010E946F0C812FDF91CF911F910895AE
:101980000E94AB0C817008951F93CF93DF93EC01FD
:10199000162F442339F040E066E00E94C40CCE01CB
:1019A0000E946F0C1B3A49F4CE010E944B0C812F10
:1019B000DF91CF911F910C948202CE010E94C00C46
:1019C0008111FBCFF1CFEF92FF920F931F93CF9333
:1019D000DF9300D0CDB7DEB77C01142F062F41E096
:1019E00062E02A8359830E94C40C802F0E948202E5
:1019F0005981852F0E948202812F0E9482022A81B2
:101A0000822F0E948202C7010F900F90DF91CF9129
:101A10001F910F91FF90EF900C946F0C2F923F92BB
:101A20004F925F926F927F928F929F92AF92BF92EE
:101A3000CF92DF92EF92FF920F931F93CF93DF939A
:101A40006C012A013B015901CA019927C0E0D1E08C
:101A5000C81BD90BE12CF12C0115110579F10C17DC
:101A60001D0708F4E80141E062E0C6010E94C40CD1
:101A7000862D0E948202852D0E948202842D0E9462
:101A8000820215012E0C3F1C4101F40181914F018E
:101A90000E948202C401821993098C179D07A8F342
:101AA000C6010E946F0C4C0E5D1E611C711CEC0E79
:101AB000FD1E0C1B1D0BC0E0D1E0CECFDF91CF91FE
:101AC0001F910F91FF90EF90DF90CF90BF90AF905C
:101AD0009F908F907F906F905F904F903F902F904E
:101AE0000895EF92FF920F931F93CF93DF931F926E
:101AF000CDB7DEB77C01142F062F41E062E5598394
:101B00000E94C40C802F0E9482025981852F0E945E
:101B10008202812F0E948202C7010F90DF91CF9134
:101B20001F910F91FF90EF900C946F0CCF93DF9368
:101B3000EC010E944B0C8BEA0E948202CE01DF91E5
:101B4000CF910C946F0CCF93DF93EC018CB58B830A
:101B50008DB58C8361E088810E94900F80E58D8334
:101B60001E82CE010E946F0CCE010E94960D8981CB
:101B70009A81892B51F0CE010E948D0C29813A81E6
:101B80008217930711F080E00CC041E061E0CE01C4
:101B90000E94C40C80E00E948202CE010E946F0C61
:101BA00081E0DF91CF910895CF93CFB7F8948091E2
:101BB000C502811127C0E1E5F1E08491EDE3F1E098
:101BC0009491E82FF0E0EE0FFF1FE159FE4FA59131
:101BD000B4918C91892321F461E08AE00E94C90FBD
:101BE00061E08AE00E94900F8CB580618CBD8CB55D
:101BF00080648CBD61E08DE00E94900F61E08BE01D
:101C00000E94900F8091C5028F5F8093C502CFBF65
:101C1000CF91089508958230E8F4E82FF0E0EE0FB8
:101C2000FF1FEA5FFE4F71836083813041F0809136
:101C300069008C7F842B80936900E89A08958091D5
:101C40006900440F551F440F551F837F842B8093D9
:101C50006900E99A08951F920F920FB60F9211240E
:101C60002F933F934F935F936F937F938F939F93A4
:101C7000AF93BF93EF93FF93E0910601F0910701BB
:101C80000995FF91EF91BF91AF919F918F917F91B6
:101C90006F915F914F913F912F910F900FBE0F90D9
:101CA0001F9018951F920F920FB60F9211242F9329
:101CB0003F934F935F936F937F938F939F93AF93D4
:101CC000BF93EF93FF93E0910801F091090109950B
:101CD000FF91EF91BF91AF919F918F917F916F9104
:101CE0005F914F913F912F910F900FBE0F901F90DA
:101CF00018951F920F920FB60F9211242F933F93B6
:101D00008F939F93AF93BF938091C7029091C80226
:101D1000A091C902B091CA023091C60223E0230FFC
:101D20002D3720F40196A11DB11D05C026E8230F13
:101D30000296A11DB11D2093C6028093C702909305
:101D4000C802A093C902B093CA028091CB029091BD
:101D5000CC02A091CD02B091CE020196A11DB11D81
:101D60008093CB029093CC02A093CD02B093CE028D
:101D7000BF91AF919F918F913F912F910F900FBE87
:101D80000F901F9018952FB7F8946091C70270912B
:101D9000C8028091C9029091CA022FBF08953FB72F
:101DA000F8948091CB029091CC02A091CD02B09199
:101DB000CE0226B5A89B05C02F3F19F00196A11DA4
:101DC000B11D3FBF6627782F892F9A2F620F711D93
:101DD000811D911D42E0660F771F881F991F4A954C
:101DE000D1F708958F929F92AF92BF92CF92DF92D8
:101DF000EF92FF926B017C010E94CF0E4B015C01C0
:101E0000C114D104E104F104F1F00E948B130E948B
:101E1000CF0E681979098A099B09683E73408105CC
:101E2000910570F321E0C21AD108E108F10888EEAB
:101E3000880E83E0981EA11CB11CC114D104E104DA
:101E4000F10429F7DDCFFF90EF90DF90CF90BF90A6
:101E5000AF909F908F900895789484B5826084BDF0
:101E600084B5816084BD85B5826085BD85B581609E
:101E700085BDEEE6F0E0808181608083E1E8F0E0FE
:101E80001082808182608083808181608083E0E82D
:101E9000F0E0808181608083E1EBF0E0808184600C
:101EA0008083E0EBF0E0808181608083EAE7F0E00E
:101EB0008081846080838081826080838081816072
:101EC00080838081806880831092C1000895833070
:101ED00081F028F4813099F08230A1F008958730A4
:101EE000A9F08830B9F08430D1F4809180008F7DE2
:101EF00003C0809180008F7780938000089584B51F
:101F00008F7702C084B58F7D84BD08958091B00025
:101F10008F7703C08091B0008F7D8093B0000895CB
:101F2000CF93DF9390E0FC01ED5CFE4F2491FC0128
:101F3000E95BFE4F8491882349F190E0880F991F57
:101F4000FC01E159FE4FA591B4918B599E4FFC01C4
:101F5000C591D4919FB7611108C0F8948C912095D8
:101F600082238C93888182230AC0623051F4F894D2
:101F70008C91322F309583238C938881822B888398
:101F800004C0F8948C91822B8C939FBFDF91CF91EA
:101F900008950F931F93CF93DF931F92CDB7DEB7B2
:101FA000282F30E0F901E15EFE4F8491F901ED5CEC
:101FB000FE4F1491F901E95BFE4F04910023C9F033
:101FC000882321F069830E94670F6981E02FF0E088
:101FD000EE0FFF1FEB59FE4FA591B4919FB7F894F8
:101FE0008C91611103C01095812301C0812B8C93CA
:101FF0009FBF0F90DF91CF911F910F910895CF93C5
:10200000DF93282F30E0F901E15EFE4F8491F90162
:10201000ED5CFE4FD491F901E95BFE4FC491CC23F6
:1020200091F081110E94670FEC2FF0E0EE0FFF1F7F
:10203000E55AFE4FA591B4912C912D2381E090E0BB
:1020400021F480E002C080E090E0DF91CF9108951C
:10205000FC01818D228D90E0805C9F4F821B910955
:102060008F7399270895FC01918D828D981731F017
:10207000828DE80FF11D858D90E008958FEF9FEF21
:102080000895FC01918D828D981761F0828DDF019A
:10209000A80FB11D5D968C91928D9F5F9F73928F5B
:1020A00090E008958FEF9FEF089585EC91E1892BE3
:1020B00049F080E090E0892B29F00E94C511811140
:1020C0000C9400000895FC01848DDF01A80FB11D60
:1020D000A35ABF4F2C91848D90E001968F7399275E
:1020E000848FA689B7892C93A089B1898C9180644B
:1020F0008C93938D848D981306C00288F389E02D0C
:1021000080818F7D80830895CF93DF93EC01888D4C
:102110008823C9F0EA89FB89808185FD05C0A889EB
:10212000B9898C9186FD0FC00FB607FCF5CF808171
:1021300085FFF2CFA889B9898C9185FFEDCFCE01BB
:102140000E946310E7CFDF91CF910895CF92DF9285
:10215000FF920F931F93CF93DF931F92CDB7DEB7FC
:102160006C0181E0D60158968C9358975B969C91B0
:102170005B975C968C915C97981307C05096ED9195
:10218000FC915197808185FD2EC0F601038D10E0F2
:102190000F5F1F4F0F731127F02EF601848DF81279
:1021A00011C00FB607FCF9CFD6015096ED91FC9106
:1021B0005197808185FFF1CFC60169830E9463102A
:1021C0006981EBCF838DE80FF11DE35AFF4F6083E8
:1021D000D6015B960C935B975296ED91FC915397C9
:1021E000808180620CC0D6015696ED91FC91579784
:1021F00060835096ED91FC9151978081806480833B
:1022000081E090E00F90DF91CF911F910F91FF90AF
:10221000DF90CF900895BF92CF92DF92EF92FF921E
:10222000CF93DF93EC016A017B01B22EE889F98933
:1022300082E08083411581EE580761057105A1F0A8
:1022400060E079E08DE390E0A70196010E9411150E
:1022500021503109410951095695479537952795E0
:10226000211580E1380798F0E889F989108260E843
:1022700074E88EE190E0A70196010E9411152150AB
:102280003109410951095695479537952795EC85B0
:10229000FD853083EE85FF852083188EEC89FD89CE
:1022A000B082EA89FB89808180618083EA89FB8929
:1022B000808188608083EA89FB898081806880834F
:1022C000EA89FB8980818F7D8083DF91CF91FF90A8
:1022D000EF90DF90CF90BF9008951F920F920FB6AE
:1022E0000F9211242F938F939F93EF93FF93E0917D
:1022F000DF02F091E0028081E091E502F091E602D8
:1023000082FD12C090818091E8028F5F8F732091CF
:10231000E902821751F0E091E802F0E0E153FD4F4D
:10232000958F8093E80201C08081FF91EF919F918A
:102330008F912F910F900FBE0F901F9018951F92A5
:102340000F920FB60F9211242F933F934F935F93E9
:102350006F937F938F939F93AF93BF93EF93FF936D
:102360008FEC92E00E946310FF91EF91BF91AF91CB
:102370009F918F917F916F915F914F913F912F919D
:102380000F900FBE0F901F9018958FEC92E00E9457
:10239000281021E0892B09F420E0822F0895109263
:1023A000D2021092D10288EE93E0A0E0B0E08093D8
:1023B000D3029093D402A093D502B093D60289E0C1
:1023C00092E09093D0028093CF0285EC90E09093BE
:1023D000DC028093DB0284EC90E09093DE02809339
:1023E000DD0280EC90E09093E0028093DF0281ECCC
:1023F00090E09093E2028093E10282EC90E090936F
:10240000E4028093E30286EC90E09093E6028093EE
:10241000E5021092E8021092E9021092EA0210928C
:10242000EB020895CF92DF92EF92FF920F931F93EA
:10243000CF93DF937C016A01EB0100E010E00C1503
:102440001D0571F06991D701ED91FC910190F0812A
:10245000E02DC7010995892B19F00F5F1F4FEFCFB2
:10246000C801DF91CF911F910F91FF90EF90DF9006
:10247000CF9008956115710581F0DB010D9000206A
:10248000E9F7AD0141505109461B570BDC01ED91B5
:10249000FC910280F381E02D099480E090E00895A2
:1024A000EF92FF920F931F93CF93DF938C017B01E9
:1024B000C0E0D0E0F701EC0FFD1F6491662359F0F6
:1024C000F801A081B181ED91FC91C8010995892B9A
:1024D00011F02196EFCFCE01DF91CF911F910F9197
:1024E000FF90EF9008950C943A12DC01ED91FC916D
:1024F0000190F081E02D099465E172E00C943A12AC
:102500000F931F93CF93DF93EC010E9450128C0125
:10251000CE010E947C12800F911FDF91CF911F91FD
:102520000F9108950F931F93CF93DF93EC010E94B7
:102530003A128C01CE010E947C12800F911FDF9114
:10254000CF911F910F9108958F929F92AF92BF925A
:10255000DF92EF92FF920F931F93CF93DF93CDB74C
:10256000DEB7A1970FB6F894DEBF0FBECDBF7C01DA
:10257000F42FD52ECB0119A2223008F42AE08E01C7
:102580000F5D1F4F822E912CA12CB12C6F2F7D2D12
:10259000A50194010E941115F22FD32ECA010150FA
:1025A00011096A3014F4E0E301C0E7E3E60FD80153
:1025B000EC93232B242B252B49F7B801C7010E944C
:1025C0003A12A1960FB6F894DEBF0FBECDBFDF91D1
:1025D000CF911F910F91FF90EF90DF90BF90AF9040
:1025E0009F908F900895CF92DF92EF92FF920F937A
:1025F0001F93CF93DF93EC016A017B012115310515
:1026000079F4E881F9810190F081E02D642FDF9168
:10261000CF911F910F91FF90EF90DF90CF90099491
:102620002A303105E9F477FF1AC06DE20E94751275
:102630008C0144275527BA014C195D096E097F09A1
:102640002AE0CE010E94A412800F911FDF91CF914A
:102650001F910F91FF90EF90DF90CF9008952AE0A7
:10266000B701A601CE01DF91CF911F910F91FF908D
:10267000EF90DF90CF900C94A4120F931F93CF9301
:10268000DF93EC019A01AB01662757FD6095762F29
:102690000E94F3128C01CE010E947C12800F911FC8
:1026A000DF91CF911F910F9108952115310541F4CC
:1026B000DC01ED91FC910190F081E02D642F0994F3
:1026C0000C94A4129A01462F50E060E070E00C9444
:1026D00055130F931F93CF93DF93EC010E94551373
:1026E0008C01CE010E947C12800F911FDF91CF914F
:1026F0001F910F91089508950E942C0F0E947B1343
:102700000E94E900C5E5D0E10E9465012097E1F350
:102710000E945510F9CF08950CD0E6C0DED040F0ED
:10272000D5D030F021F45F3F19F0C7C0511110C16E
:10273000CAC0EBD098F39923C9F35523B1F3951B85
:10274000550BBB27AA2762177307840738F09F5FD2
:102750005F4F220F331F441FAA1FA9F333D00E2E41
:102760003AF0E0E830D091505040E695001CCAF7AE
:1027700029D0FE2F27D0660F771F881FBB1F261773
:1027800037074807AB07B0E809F0BB0B802DBF0146
:10279000FF2793585F4F2AF09E3F510568F08DC088
:1027A000D7C05F3FECF3983EDCF38695779567954D
:1027B000B795F7959F5FC9F7880F911D96958795F7
:1027C00097F90895E1E0660F771F881FBB1F621716
:1027D00073078407BA0720F0621B730B840BBA0BD4
:1027E000EE1F88F7E095089598D088F09F5790F0F5
:1027F000B92F9927B751A0F0D1F0660F771F881F26
:10280000991F1AF0BA95C9F712C0B13081F09FD064
:10281000B1E008959CC0672F782F8827B85F39F002
:10282000B93FCCF3869577956795B395D9F73EF484
:1028300090958095709561957F4F8F4F9F4F08952C
:10284000E89409C097FB3EF490958095709561954A
:102850007F4F8F4F9F4F9923A9F0F92F96E9BB2700
:102860009395F695879577956795B795F111F8CF7C
:10287000FAF4BB0F11F460FF1BC06F5F7F4F8F4FE7
:102880009F4F16C0882311F096E911C0772321F0DD
:102890009EE8872F762F05C0662371F096E8862F75
:1028A00070E060E02AF09A95660F771F881FDAF7CC
:1028B000880F9695879597F9089597F99F6780E80F
:1028C00070E060E008959FEF80EC089500240A9482
:1028D0001616170618060906089500240A941216FB
:1028E0001306140605060895092E0394000C11F42E
:1028F000882352F0BB0F40F4BF2B11F460FF04C0DB
:102900006F5F7F4F8F4F9F4F089557FD9058440F33
:10291000551F59F05F3F71F04795880F97FB991F3E
:1029200061F09F3F79F087950895121613061406FB
:10293000551FF2CF4695F1DF08C016161706180688
:10294000991FF1CF86957105610508940895E89463
:10295000BB2766277727CB0197F908950BD0C4CF03
:10296000B5DF28F0BADF18F0952309F0A6CFABCF7A
:102970001124EECFCADFA0F3959FD1F3950F50E05D
:10298000551F629FF001729FBB27F00DB11D639F21
:10299000AA27F00DB11DAA1F649F6627B00DA11DC7
:1029A000661F829F2227B00DA11D621F739FB00D6D
:1029B000A11D621F839FA00D611D221F749F3327DD
:1029C000A00D611D231F849F600D211D822F762F76
:1029D0006A2F11249F5750408AF0E1F088234AF073
:1029E000EE0FFF1FBB1F661F771F881F91505040BF
:1029F000A9F79E3F510570F060CFAACF5F3FECF37F
:102A0000983EDCF3869577956795B795F795E795AA
:102A10009F5FC1F7FE2B880F911D9695879597F9BB
:102A20000895A1E21A2EAA1BBB1BFD010DC0AA1F0F
:102A3000BB1FEE1FFF1FA217B307E407F50720F027
:102A4000A21BB30BE40BF50B661F771F881F991FA2
:102A50001A9469F760957095809590959B01AC01EB
:102A6000BD01CF010895EE0FFF1F0590F491E02DF9
:102A70000994AEE0B0E0EFE3F5E10C94E9170D89BD
:102A80001E8986E08C831A8309838FEF9FE79E83DC
:102A90008D83AE01475E5F4F6F89788DCE010196C1
:102AA0000E945B15EF81F885E00FF11F10822E96D2
:102AB000E4E00C940518ACE0B0E0E1E6F5E10C943C
:102AC000DB177C016B018A01FC011782168283816E
:102AD00081FFBDC1CE0101964C01F7019381F60142
:102AE00093FD859193FF81916F01882309F4ABC118
:102AF000853239F493FD859193FF81916F01853281
:102B000029F4B70190E00E944B17E7CF512C312CEC
:102B100020E02032A0F48B3269F030F4803259F09A
:102B2000833269F420612CC08D3239F0803339F45E
:102B3000216026C02260246023C0286021C027FDB8
:102B400027C030ED380F3A3078F426FF06C0FAE09F
:102B50005F9E300D1124532E13C08AE0389E300D35
:102B60001124332E20620CC08E3221F426FD6BC15D
:102B7000206406C08C3611F4206802C0883641F407
:102B8000F60193FD859193FF81916F018111C1CF72
:102B9000982F9F7D9554933028F40C5F1F4FFFE3CF
:102BA000F9830DC0833631F0833771F0833509F036
:102BB0005BC022C0F801808189830E5F1F4F4424CF
:102BC0004394512C540115C03801F2E06F0E711C72
:102BD000F801A080B18026FF03C0652D70E002C01F
:102BE0006FEF7FEFC5012C870E9440172C018301F6
:102BF0002C852F77222E17C03801F2E06F0E711C42
:102C0000F801A080B18026FF03C0652D70E002C0EE
:102C10006FEF7FEFC5012C870E9435172C012C85A3
:102C20002068222E830123FC1BC0832D90E04816D0
:102C30005906B0F4B70180E290E00E944B173A9435
:102C4000F4CFF50127FC859127FE81915F01B70143
:102C500090E00E944B1731103A94F1E04F1A51085E
:102C60004114510471F7E5C0843611F0893639F505
:102C7000F80127FF07C060817181828193810C5F19
:102C80001F4F08C060817181882777FD8095982F3C
:102C90000E5F1F4F2F76B22E97FF09C0909580953B
:102CA000709561957F4F8F4F9F4F2068B22E2AE01D
:102CB00030E0A4010E947D17A82EA81844C08537D3
:102CC00029F42F7EB22E2AE030E025C0F22FF97FC2
:102CD000BF2E8F36C1F018F4883579F0B4C0803734
:102CE00019F0883721F0AFC02F2F2061B22EB4FE2B
:102CF0000DC08B2D8460B82E09C024FF0AC09F2F01
:102D00009660B92E06C028E030E005C020E130E032
:102D100002C020E132E0F801B7FE07C06081718196
:102D2000828193810C5F1F4F06C06081718180E0BA
:102D300090E00E5F1F4FA4010E947D17A82EA818D7
:102D4000FB2DFF77BF2EB6FE0BC02B2D2E7FA514BB
:102D500050F4B4FE0AC0B2FC08C02B2D2E7E05C074
:102D60007A2C2B2D03C07A2C01C0752C24FF0DC0AA
:102D7000FE01EA0DF11D8081803311F4297E09C026
:102D800022FF06C07394739404C0822F867809F0E2
:102D9000739423FD13C020FF06C05A2C731418F43B
:102DA000530C5718732C731468F4B70180E290E049
:102DB0002C870E944B1773942C85F5CF731410F455
:102DC000371801C0312C24FF12C0B70180E390E016
:102DD0002C870E944B172C8522FF17C021FF03C0B0
:102DE00088E590E002C088E790E0B7010CC0822F30
:102DF000867859F021FD02C080E201C08BE227FDF8
:102E00008DE2B70190E00E944B17A51438F4B7018A
:102E100080E390E00E944B175A94F7CFAA94F401F4
:102E2000EA0DF11D8081B70190E00E944B17A110BF
:102E3000F5CF332009F451CEB70180E290E00E9433
:102E40004B173A94F6CFF7018681978102C08FEF36
:102E50009FEF2C96E2E10C94F717F999FECF92BD03
:102E600081BDF89A992780B50895FC0105906150BD
:102E700070400110D8F7809590958E0F9F1F089590
:102E8000FC016150704001900110D8F78095909539
:102E90008E0F9F1F08950F931F93CF93DF93182FCB
:102EA000092FEB018B8181FD03C08FEF9FEF20C0C5
:102EB00082FF10C04E815F812C813D8142175307F4
:102EC0007CF4E881F9819F012F5F3F4F398328838C
:102ED000108306C0E885F985812F0995892B29F78C
:102EE0002E813F812F5F3F4F3F832E83812F902F75
:102EF000DF91CF911F910F910895FA01AA272830F1
:102F000051F1203181F1E8946F936E7F6E5F7F4FB6
:102F10008F4F9F4FAF4FB1E03ED0B4E03CD0670F32
:102F2000781F891F9A1FA11D680F791F8A1F911D85
:102F3000A11D6A0F711D811D911DA11D20D009F4D5
:102F400068943F912AE0269F11243019305D319317
:102F5000DEF6CF010895462F4770405D4193B3E000
:102F60000FD0C9F7F6CF462F4F70405D4A3318F0A7
:102F7000495D31FD4052419302D0A9F7EACFB4E058
:102F8000A6959795879577956795BA95C9F7009710
:102F90006105710508959B01AC010A2E06945795B1
:102FA000479537952795BA95C9F7620F731F841F08
:102FB000951FA01D08952F923F924F925F926F929E
:102FC0007F928F929F92AF92BF92CF92DF92EF92B9
:102FD000FF920F931F93CF93DF93CDB7DEB7CA1B3A
:102FE000DB0B0FB6F894DEBF0FBECDBF09942A8865
:102FF000398848885F846E847D848C849B84AA840D
:10300000B984C884DF80EE80FD800C811B81AA8199
:10301000B981CE0FD11D0FB6F894DEBF0FBECDBF64
:08302000ED010895F894FFCFC3
:1030280000006C0380000A0E0A0E73616D706C65F7
:10303800456E63727970744B65790053746172746C
:10304800206E6F64652E2E2E004E6F6465204944F5
:10305800203D200053504920466C61736820496E1A
:103068006974204F4B210053504920466C617368A6
:1030780020496E6974204641494C2100202D204189
:10308800434B2073656E74005265706C79000000C4
:1030980000007E07A9024D02CB072B084E04CC0680
:1030A80025026804E904DF034B0837026F02464C27
:1030B800583F4E4F4B3A4E4F464C41534800464CB2
:1030C800583F4F4B00464C583F454F4600464C58DA
:1030D8003F00464C583A25753A00464C58494D47EA
:1030E8003A00464C583A25753A4F4B00464C583FE3
:1030F8004E4F4B3A4845583E33316B0054696D6525
:103108006F75742F4572726F722C206572617369C6
:103118006E67207772697474656E206461746120CB
:103128002E2E2E200000000000A61012122810419A
:1031380010331084100D0A006E616E00696E66000F
:043148006F76660038
:107800000C94343C0C94513C0C94513C0C94513CE1
:107810000C94513C0C94513C0C94513C0C94513CB4
:107820000C94513C0C94513C0C94513C0C94513CA4
:107830000C94513C0C94513C0C94513C0C94513C94
:107840000C94513C0C94513C0C94513C0C94513C84
:107850000C94513C0C94513C0C94513C0C94513C74
:107860000C94513C0C94513C11241FBECFEFD8E036
:10787000DEBFCDBF11E0A0E0B1E0ECE9FFE702C060
:1078800005900D92A230B107D9F712E0A2E0B1E065
:1078900001C01D92AD30B107E1F70E942D3D0C945F
:1078A000CC3F0C94003C982F959595959595959582
:1078B000905D8F708A307CF0282F295A8091C0000B
:1078C00085FFFCCF9093C6008091C00085FFFCCF60
:1078D0002093C6000895282F205DF0CF982F809127
:1078E000C00085FFFCCF9093C6000895EF92FF92F1
:1078F0000F931F93EE24FF2487018091C00087FD22
:1079000017C00894E11CF11C011D111D81E4E8164B
:1079100082E4F8068FE0080780E0180770F3E09132
:107920000401F091050109958091C00087FFE9CF1E
:107930008091C6001F910F91FF90EF9008950E94D3
:10794000763C982F8091C00085FFFCCF9093C600B5
:1079500091362CF490330CF09053892F089597555D
:10796000892F08951F930E949F3C182F0E949F3CCF
:107970001295107F810F1F9108951F93182F882350
:1079800021F00E94763C1150E1F71F9108951F935A
:10799000182F0E94763C803249F0809103018F5F5E
:1079A000809303018530C1F01F9108958091C0003C
:1079B00085FFFCCF84E18093C6008091C00085FFE5
:1079C000FCCF1093C6008091C00085FFFCCF80E102
:1079D0008093C6001F910895E0910401F091050184
:1079E00009951F9108950E94763C803241F0809164
:1079F00003018F5F80930301853081F008958091AA
:107A0000C00085FFFCCF84E18093C6008091C00058
:107A100085FFFCCF80E18093C6000895E0910401CA
:107A2000F09105010995089540E951E08823A1F0FE
:107A30002D9A28EE33E0FA013197F1F721503040CA
:107A4000D1F72D9828EE33E0FA013197F1F7215064
:107A50003040D1F7815061F708953F924F925F9285
:107A60006F927F928F929F92AF92BF92CF92DF924E
:107A7000EF92FF920F931F93CF93DF93000080E16B
:107A80008093C4001092C50088E18093C10086E015
:107A90008093C2005098589A259A81E00E94143D24
:107AA00024E1F22E9EE1E92E85E9D82E0FE0C02ECA
:107AB00010E1B12EAA24A394B1E49B2EA6E58A2E50
:107AC000F2E57F2EE0E26E2E79E4572E63E5462E36
:107AD00050E5352E0E94763C8033B1F18133B9F107
:107AE000803409F46FC0813409F476C0823409F41B
:107AF00085C0853409F488C0803531F1823521F1A3
:107B0000813511F1853509F485C0863509F48DC0BC
:107B1000843609F496C0843709F403C1853709F423
:107B200072C1863709F466C0809103018F5F80932C
:107B30000301853079F6E0910401F0910501099582
:107B40000E94763C803351F60E94F33CC3CF0E94E2
:107B5000763C803249F78091C00085FFFCCFF092DF
:107B6000C6008091C00085FFFCCF9092C600809136
:107B7000C00085FFFCCF8092C6008091C00085FFC9
:107B8000FCCF7092C6008091C00085FFFCCF609250
:107B9000C6008091C00085FFFCCF5092C600809146
:107BA000C00085FFFCCF4092C6008091C00085FFD9
:107BB000FCCF3092C6008091C00085FFFCCFB09210
:107BC000C60088CF0E94763C863808F4BDCF0E945C
:107BD000763C0E94F33C7ECF0E94763C803809F4CC
:107BE0009CC0813809F40BC1823809F43CC1883942
:107BF00009F48FC080E00E94C73C6CCF84E10E94F2
:107C0000BD3C0E94F33C66CF85E00E94BD3C0E94D3
:107C1000F33C60CF0E94763C809306010E94763C44
:107C2000809307010E94F33C55CF0E94763C80333D
:107C300009F41DC183E00E94BD3C80E00E94C73C66
:107C400049CF0E94763C809309020E94763C809343
:107C5000080280910C028E7F80930C020E94763C79
:107C6000853409F415C18091080290910902892B8D
:107C700089F000E010E00E94763CF801E85FFE4FDA
:107C800080830F5F1F4F80910802909109020817AF
:107C9000190788F30E94763C803209F045CF809125
:107CA0000C0280FF01C16091060170910701660F0F
:107CB000771F7093070160930601A0910802B091AD
:107CC00009021097C9F0E8E0F1E09B01AD014E0F09
:107CD0005F1FF999FECF32BD21BD819180BDFA9A17
:107CE000F99A2F5F3F4FE417F50799F76A0F7B1F4B
:107CF00070930701609306018091C00085FFFCCF5F
:107D0000F092C6008091C00085FFFCCFB092C60003
:107D1000E1CE83E00E94C73CDDCE82E00E94C73CFA
:107D2000D9CE0E94763C809309020E94763C8093D3
:107D300008028091060190910701880F991F909386
:107D40000701809306010E94763C853409F4A6C0A1
:107D500080910C028E7F80930C020E94763C8032D0
:107D600009F0B8CE8091C00085FFFCCFF092C6002C
:107D7000609108027091090261157105B9F140E046
:107D800050E080910C02A82FA170B82FB27011C0E2
:107D9000BB2309F45CC0E0910601F0910701319624
:107DA000F0930701E09306014F5F5F4F46175707B7
:107DB000E8F4AA2369F3F999FECF209106013091E6
:107DC000070132BD21BDF89A90B58091C00085FFB2
:107DD000FCCF9093C6002F5F3F4F30930701209355
:107DE00006014F5F5F4F4617570718F38091C00099
:107DF00085FDE5CE8091C00085FFF8CFE0CE81E023
:107E00000E94C73C67CE0E94763C803209F08CCE3F
:107E10008091C00085FFFCCFF092C6008091C00029
:107E200085FFFCCFE092C6008091C00085FFFCCFAB
:107E3000D092C6008091C00085FFFCCFC092C600E2
:107E40008091C00085FFFCCFB092C60043CEE09188
:107E50000601F091070194918091C00085FFFCCF4D
:107E60009093C6009CCF80E10E94C73C33CE0E9415
:107E7000763C0E94763C182F0E94763C112309F430
:107E800083C0113009F484C08FE00E94C73C22CE29
:107E900080910C02816080930C02E5CE80910C02EF
:107EA000816080930C0259CF809107018823880F4D
:107EB000880B8A2180930B02809106019091070123
:107EC000880F991F90930701809306018091080203
:107ED00080FF09C080910802909109020196909359
:107EE000090280930802F894F999FECF1127E091D6
:107EF0000601F0910701C8E0D1E08091080290915D
:107F00000902103091F40091570001700130D9F34B
:107F100003E000935700E89500915700017001308D
:107F2000D9F301E100935700E89509901990009169
:107F3000570001700130D9F301E000935700E89534
:107F40001395103498F011270091570001700130FB
:107F5000D9F305E000935700E895009157000170B0
:107F60000130D9F301E100935700E895329602976A
:107F700009F0C7CF103011F00296E5CF112480919F
:107F8000C00085FFB9CEBCCE8EE10E94C73CA2CD19
:0C7F900085E90E94C73C9ECDF894FFCF0D
:027F9C00800063
:040000030000780081
:00000001FF
